:1000000002012D7D0E7F201203B6782E7409F27F37
:10001000A01202B2D2E87F0F7E0012037FC2E82254
:10002300020316C2ACD29CC29FD29E43878043D8A0
:100033008075AAE675BA03C29975999922C2E87DBB
:060043000C7F200203B651
:10004B000201B91202221200261203F01203F7D298
:10005B00ACD2AF7818E2607D780FE2640D70460881
:10006B00E2640A7040C2E87BFE7A0079067D0912D1
:10007B000003A204720550FAE4F520120040B28688
:10008B00E47818F208F27819E2FFC3940B500D7460
:10009B00062FF8E4F27819E204F280EAE47812F21F
:1000AB001203E480307FFF1203CF7F0D1203CF7F4B
:1000BB000A1203CFE47819F27819E2FFC3940B50BC
:1000CB000D74062FF8E4F27819E204F280EAE47872
:1000DB0012F27818F220060302005EE4F520781B7A
:1000EB00E2FF7824E26F701D781DE2FF7826E26F45
:1000FB007013781F1203C7081203C77F0D1203CFAB
:10010B007F0A1203CFE47819F27819E2FFC3940B3C
:10011B00400302005E741F2FF8E4F27819E204F238
:10012B0080E7787FE4F6D8FD758120020174020028
:10013B004EE493A3F8E493A34003F68001F208DFA7
:10014B00F48029E493A3F85407240CC8C333C45494
:10015B000F4420C8834004F456800146F6DFE48048
:10016B000B0102040810204080900347E47E0193AA
:10017B0060BCA3FF543F30E509541FFEE493A3601A
:10018B00010ECF54C025E060A840B8E493A3FAE475
:10019B0093A3F8E493A3C8C582C8CAC583CAF0A3C6
:1001AB00C8C582C8CAC583CADFE9DEE780BEC0E026
:1001BB00C083C082C0D075D000C000C001C002C0D7
:1001CB0003C005C006C0077F071203D78F20300678
:1001DB001EC2E87BFE7A00791F78337409F27F61C7
:1001EB001202E4E4FD7FE21203B678007401F230F0
:1001FB000407E4FD7FE11203B67D707F271203B67F
:10020B00D007D006D005D003D002D001D000D0D07B
:10021B00D082D083D0E032C2E8D2EAD2B97F0A7E54
:10022B00001203A27BFE7A007901782E7405F27F0F
:10023B00301202B27BFE7A007901782E7405F27FC0
:10024B002A1202B27D017F211203B67F221203B65E
:10025B007D1A7F241203B67D287F251203B67D0FEE
:10026B007F261203B67D097F310203B6BB010689D7
:10027B00828A83E0225002E722BBFE02E3228982BC
:10028B008A83E49322F8BB010DE58229F582E5838D
:10029B003AF583E8F0225006E92582C8F622BBFE28
:1002AB0005E92582C8F222782B12038EAE07E4FDF6
:1002BB00782EE2FFEDC39F501B782BE2FB0808E280
:1002CB00F92401F218E2FA3400F2120277FF12035A
:1002DB00980D80DCD2E9AF0622783012038EAE0780
:1002EB00E4FD7833E2FFEDC39F501BE4FF1203984C
:1002FB007830E2FB08E2FA08E2F98D82758300EFB1
:10030B001202900D80DCD2E9AF0622C0E0C0D0759E
:10031B00D000C000C00730981AC2987812E2FF04D0
:10032B00F274062FF8E599F27812E2B40B057818FF
:10033B007401F2D007D000D0D0D0E0328513010188
:10034B00070008851A0202080109850134567890C6
:10035B00140908FF0102030405000000811200814B
:10036B001800810000811900007FFA7E0012037FC4
:10037B007FFA7E000000000000EF1F70011E144E7C
:10038B0070F222EBF208EAF208E9F2C2E98FE7E534
:10039B00E630E1FBAFE722AD07AC061203741203A4
:1003AB0074ED1D70011C144C70F122C2E9120398FC
:1003BB00AE07AF05120398D2E9AF0622E2FF120394
:1003CB00CF08E2FF3099FDC2998F9922C2E912033F
:1003DB0098E4FF120398D2E922C2E87D0F7F201226
:1003EB0003B6D2E8227593F07594FF225393BFD2D4
:0203FB00862258
:00000001FF
